{
  "_format": "hh-sol-artifact-1",
  "contractName": "meraki",
  "sourceName": "contracts/meraki.sol",
  "abi": [
    {
      "inputs": [],
      "stateMutability": "nonpayable",
      "type": "constructor"
    },
    {
      "anonymous": false,
      "inputs": [
        {
          "indexed": true,
          "internalType": "address",
          "name": "owner",
          "type": "address"
        },
        {
          "indexed": true,
          "internalType": "address",
          "name": "approved",
          "type": "address"
        },
        {
          "indexed": true,
          "internalType": "uint256",
          "name": "tokenId",
          "type": "uint256"
        }
      ],
      "name": "Approval",
      "type": "event"
    },
    {
      "anonymous": false,
      "inputs": [
        {
          "indexed": true,
          "internalType": "address",
          "name": "owner",
          "type": "address"
        },
        {
          "indexed": true,
          "internalType": "address",
          "name": "operator",
          "type": "address"
        },
        {
          "indexed": false,
          "internalType": "bool",
          "name": "approved",
          "type": "bool"
        }
      ],
      "name": "ApprovalForAll",
      "type": "event"
    },
    {
      "anonymous": false,
      "inputs": [
        {
          "indexed": true,
          "internalType": "address",
          "name": "previousOwner",
          "type": "address"
        },
        {
          "indexed": true,
          "internalType": "address",
          "name": "newOwner",
          "type": "address"
        }
      ],
      "name": "OwnershipTransferred",
      "type": "event"
    },
    {
      "anonymous": false,
      "inputs": [
        {
          "indexed": true,
          "internalType": "address",
          "name": "from",
          "type": "address"
        },
        {
          "indexed": true,
          "internalType": "address",
          "name": "to",
          "type": "address"
        },
        {
          "indexed": true,
          "internalType": "uint256",
          "name": "tokenId",
          "type": "uint256"
        }
      ],
      "name": "Transfer",
      "type": "event"
    },
    {
      "inputs": [],
      "name": "_initBaseURI",
      "outputs": [
        {
          "internalType": "string",
          "name": "",
          "type": "string"
        }
      ],
      "stateMutability": "view",
      "type": "function"
    },
    {
      "inputs": [],
      "name": "_initNotRevealedUri",
      "outputs": [
        {
          "internalType": "string",
          "name": "",
          "type": "string"
        }
      ],
      "stateMutability": "view",
      "type": "function"
    },
    {
      "inputs": [],
      "name": "_name",
      "outputs": [
        {
          "internalType": "string",
          "name": "",
          "type": "string"
        }
      ],
      "stateMutability": "view",
      "type": "function"
    },
    {
      "inputs": [],
      "name": "_symbol",
      "outputs": [
        {
          "internalType": "string",
          "name": "",
          "type": "string"
        }
      ],
      "stateMutability": "view",
      "type": "function"
    },
    {
      "inputs": [
        {
          "internalType": "uint256",
          "name": "",
          "type": "uint256"
        }
      ],
      "name": "adminAddresses",
      "outputs": [
        {
          "internalType": "address",
          "name": "",
          "type": "address"
        }
      ],
      "stateMutability": "view",
      "type": "function"
    },
    {
      "inputs": [],
      "name": "allowListMintOpen",
      "outputs": [
        {
          "internalType": "bool",
          "name": "",
          "type": "bool"
        }
      ],
      "stateMutability": "view",
      "type": "function"
    },
    {
      "inputs": [
        {
          "internalType": "address",
          "name": "to",
          "type": "address"
        },
        {
          "internalType": "uint256",
          "name": "tokenId",
          "type": "uint256"
        }
      ],
      "name": "approve",
      "outputs": [],
      "stateMutability": "nonpayable",
      "type": "function"
    },
    {
      "inputs": [
        {
          "internalType": "address",
          "name": "owner",
          "type": "address"
        }
      ],
      "name": "balanceOf",
      "outputs": [
        {
          "internalType": "uint256",
          "name": "",
          "type": "uint256"
        }
      ],
      "stateMutability": "view",
      "type": "function"
    },
    {
      "inputs": [],
      "name": "baseExtension",
      "outputs": [
        {
          "internalType": "string",
          "name": "",
          "type": "string"
        }
      ],
      "stateMutability": "view",
      "type": "function"
    },
    {
      "inputs": [],
      "name": "cost",
      "outputs": [
        {
          "internalType": "uint256",
          "name": "",
          "type": "uint256"
        }
      ],
      "stateMutability": "view",
      "type": "function"
    },
    {
      "inputs": [
        {
          "internalType": "bool",
          "name": "_publicMintOpen",
          "type": "bool"
        },
        {
          "internalType": "bool",
          "name": "_allowListMintOpen",
          "type": "bool"
        }
      ],
      "name": "editMintWindows",
      "outputs": [],
      "stateMutability": "nonpayable",
      "type": "function"
    },
    {
      "inputs": [
        {
          "internalType": "uint256",
          "name": "_id",
          "type": "uint256"
        }
      ],
      "name": "getAdminAddress",
      "outputs": [
        {
          "internalType": "address",
          "name": "",
          "type": "address"
        }
      ],
      "stateMutability": "view",
      "type": "function"
    },
    {
      "inputs": [
        {
          "internalType": "uint256",
          "name": "tokenId",
          "type": "uint256"
        }
      ],
      "name": "getApproved",
      "outputs": [
        {
          "internalType": "address",
          "name": "",
          "type": "address"
        }
      ],
      "stateMutability": "view",
      "type": "function"
    },
    {
      "inputs": [],
      "name": "getMaxMint",
      "outputs": [
        {
          "internalType": "uint256",
          "name": "",
          "type": "uint256"
        }
      ],
      "stateMutability": "view",
      "type": "function"
    },
    {
      "inputs": [],
      "name": "getMerkleRoot",
      "outputs": [
        {
          "internalType": "bytes32",
          "name": "",
          "type": "bytes32"
        }
      ],
      "stateMutability": "view",
      "type": "function"
    },
    {
      "inputs": [],
      "name": "howManyNftMinted",
      "outputs": [
        {
          "internalType": "uint256",
          "name": "",
          "type": "uint256"
        }
      ],
      "stateMutability": "view",
      "type": "function"
    },
    {
      "inputs": [
        {
          "internalType": "address",
          "name": "owner",
          "type": "address"
        },
        {
          "internalType": "address",
          "name": "operator",
          "type": "address"
        }
      ],
      "name": "isApprovedForAll",
      "outputs": [
        {
          "internalType": "bool",
          "name": "",
          "type": "bool"
        }
      ],
      "stateMutability": "view",
      "type": "function"
    },
    {
      "inputs": [
        {
          "internalType": "bytes32[]",
          "name": "proof",
          "type": "bytes32[]"
        },
        {
          "internalType": "bytes32",
          "name": "leaf",
          "type": "bytes32"
        }
      ],
      "name": "isValid",
      "outputs": [
        {
          "internalType": "bool",
          "name": "",
          "type": "bool"
        }
      ],
      "stateMutability": "view",
      "type": "function"
    },
    {
      "inputs": [],
      "name": "maxMintAmount",
      "outputs": [
        {
          "internalType": "uint256",
          "name": "",
          "type": "uint256"
        }
      ],
      "stateMutability": "view",
      "type": "function"
    },
    {
      "inputs": [],
      "name": "maxSupply",
      "outputs": [
        {
          "internalType": "uint256",
          "name": "",
          "type": "uint256"
        }
      ],
      "stateMutability": "view",
      "type": "function"
    },
    {
      "inputs": [],
      "name": "name",
      "outputs": [
        {
          "internalType": "string",
          "name": "",
          "type": "string"
        }
      ],
      "stateMutability": "view",
      "type": "function"
    },
    {
      "inputs": [],
      "name": "nextBatchAddition",
      "outputs": [
        {
          "internalType": "uint256",
          "name": "",
          "type": "uint256"
        }
      ],
      "stateMutability": "view",
      "type": "function"
    },
    {
      "inputs": [],
      "name": "notRevealedUri",
      "outputs": [
        {
          "internalType": "string",
          "name": "",
          "type": "string"
        }
      ],
      "stateMutability": "view",
      "type": "function"
    },
    {
      "inputs": [],
      "name": "owner",
      "outputs": [
        {
          "internalType": "address",
          "name": "",
          "type": "address"
        }
      ],
      "stateMutability": "view",
      "type": "function"
    },
    {
      "inputs": [
        {
          "internalType": "uint256",
          "name": "tokenId",
          "type": "uint256"
        }
      ],
      "name": "ownerOf",
      "outputs": [
        {
          "internalType": "address",
          "name": "",
          "type": "address"
        }
      ],
      "stateMutability": "view",
      "type": "function"
    },
    {
      "inputs": [
        {
          "internalType": "bool",
          "name": "_state",
          "type": "bool"
        }
      ],
      "name": "pause",
      "outputs": [],
      "stateMutability": "nonpayable",
      "type": "function"
    },
    {
      "inputs": [],
      "name": "paused",
      "outputs": [
        {
          "internalType": "bool",
          "name": "",
          "type": "bool"
        }
      ],
      "stateMutability": "view",
      "type": "function"
    },
    {
      "inputs": [
        {
          "internalType": "uint256",
          "name": "_mintAmount",
          "type": "uint256"
        }
      ],
      "name": "publicMint",
      "outputs": [],
      "stateMutability": "payable",
      "type": "function"
    },
    {
      "inputs": [],
      "name": "publicMintOpen",
      "outputs": [
        {
          "internalType": "bool",
          "name": "",
          "type": "bool"
        }
      ],
      "stateMutability": "view",
      "type": "function"
    },
    {
      "inputs": [],
      "name": "renounceOwnership",
      "outputs": [],
      "stateMutability": "nonpayable",
      "type": "function"
    },
    {
      "inputs": [],
      "name": "reveal",
      "outputs": [],
      "stateMutability": "nonpayable",
      "type": "function"
    },
    {
      "inputs": [],
      "name": "revealed",
      "outputs": [
        {
          "internalType": "bool",
          "name": "",
          "type": "bool"
        }
      ],
      "stateMutability": "view",
      "type": "function"
    },
    {
      "inputs": [],
      "name": "root",
      "outputs": [
        {
          "internalType": "bytes32",
          "name": "",
          "type": "bytes32"
        }
      ],
      "stateMutability": "view",
      "type": "function"
    },
    {
      "inputs": [
        {
          "internalType": "address",
          "name": "from",
          "type": "address"
        },
        {
          "internalType": "address",
          "name": "to",
          "type": "address"
        },
        {
          "internalType": "uint256",
          "name": "tokenId",
          "type": "uint256"
        }
      ],
      "name": "safeTransferFrom",
      "outputs": [],
      "stateMutability": "nonpayable",
      "type": "function"
    },
    {
      "inputs": [
        {
          "internalType": "address",
          "name": "from",
          "type": "address"
        },
        {
          "internalType": "address",
          "name": "to",
          "type": "address"
        },
        {
          "internalType": "uint256",
          "name": "tokenId",
          "type": "uint256"
        },
        {
          "internalType": "bytes",
          "name": "data",
          "type": "bytes"
        }
      ],
      "name": "safeTransferFrom",
      "outputs": [],
      "stateMutability": "nonpayable",
      "type": "function"
    },
    {
      "inputs": [
        {
          "internalType": "address",
          "name": "operator",
          "type": "address"
        },
        {
          "internalType": "bool",
          "name": "approved",
          "type": "bool"
        }
      ],
      "name": "setApprovalForAll",
      "outputs": [],
      "stateMutability": "nonpayable",
      "type": "function"
    },
    {
      "inputs": [
        {
          "internalType": "string",
          "name": "_newBaseExtension",
          "type": "string"
        }
      ],
      "name": "setBaseExtension",
      "outputs": [],
      "stateMutability": "nonpayable",
      "type": "function"
    },
    {
      "inputs": [
        {
          "internalType": "string",
          "name": "_newBaseURI",
          "type": "string"
        }
      ],
      "name": "setBaseURI",
      "outputs": [],
      "stateMutability": "nonpayable",
      "type": "function"
    },
    {
      "inputs": [
        {
          "internalType": "uint256",
          "name": "_newCost",
          "type": "uint256"
        }
      ],
      "name": "setCost",
      "outputs": [],
      "stateMutability": "nonpayable",
      "type": "function"
    },
    {
      "inputs": [
        {
          "internalType": "bytes32",
          "name": "_root",
          "type": "bytes32"
        }
      ],
      "name": "setMerkleRoot",
      "outputs": [],
      "stateMutability": "nonpayable",
      "type": "function"
    },
    {
      "inputs": [],
      "name": "setNextBatch",
      "outputs": [],
      "stateMutability": "nonpayable",
      "type": "function"
    },
    {
      "inputs": [
        {
          "internalType": "string",
          "name": "_notRevealedURI",
          "type": "string"
        }
      ],
      "name": "setNotRevealedURI",
      "outputs": [],
      "stateMutability": "nonpayable",
      "type": "function"
    },
    {
      "inputs": [
        {
          "internalType": "uint256",
          "name": "_id",
          "type": "uint256"
        },
        {
          "internalType": "address",
          "name": "_payAddress",
          "type": "address"
        }
      ],
      "name": "setWalletPayout",
      "outputs": [],
      "stateMutability": "nonpayable",
      "type": "function"
    },
    {
      "inputs": [
        {
          "internalType": "uint256",
          "name": "_newmaxMintAmount",
          "type": "uint256"
        }
      ],
      "name": "setmaxMintAmount",
      "outputs": [],
      "stateMutability": "nonpayable",
      "type": "function"
    },
    {
      "inputs": [
        {
          "internalType": "bytes4",
          "name": "interfaceId",
          "type": "bytes4"
        }
      ],
      "name": "supportsInterface",
      "outputs": [
        {
          "internalType": "bool",
          "name": "",
          "type": "bool"
        }
      ],
      "stateMutability": "view",
      "type": "function"
    },
    {
      "inputs": [],
      "name": "symbol",
      "outputs": [
        {
          "internalType": "string",
          "name": "",
          "type": "string"
        }
      ],
      "stateMutability": "view",
      "type": "function"
    },
    {
      "inputs": [
        {
          "internalType": "uint256",
          "name": "index",
          "type": "uint256"
        }
      ],
      "name": "tokenByIndex",
      "outputs": [
        {
          "internalType": "uint256",
          "name": "",
          "type": "uint256"
        }
      ],
      "stateMutability": "view",
      "type": "function"
    },
    {
      "inputs": [
        {
          "internalType": "address",
          "name": "owner",
          "type": "address"
        },
        {
          "internalType": "uint256",
          "name": "index",
          "type": "uint256"
        }
      ],
      "name": "tokenOfOwnerByIndex",
      "outputs": [
        {
          "internalType": "uint256",
          "name": "",
          "type": "uint256"
        }
      ],
      "stateMutability": "view",
      "type": "function"
    },
    {
      "inputs": [
        {
          "internalType": "uint256",
          "name": "tokenId",
          "type": "uint256"
        }
      ],
      "name": "tokenURI",
      "outputs": [
        {
          "internalType": "string",
          "name": "",
          "type": "string"
        }
      ],
      "stateMutability": "view",
      "type": "function"
    },
    {
      "inputs": [],
      "name": "totalMaxSupply",
      "outputs": [
        {
          "internalType": "uint256",
          "name": "",
          "type": "uint256"
        }
      ],
      "stateMutability": "view",
      "type": "function"
    },
    {
      "inputs": [],
      "name": "totalSupply",
      "outputs": [
        {
          "internalType": "uint256",
          "name": "",
          "type": "uint256"
        }
      ],
      "stateMutability": "view",
      "type": "function"
    },
    {
      "inputs": [
        {
          "internalType": "address",
          "name": "from",
          "type": "address"
        },
        {
          "internalType": "address",
          "name": "to",
          "type": "address"
        },
        {
          "internalType": "uint256",
          "name": "tokenId",
          "type": "uint256"
        }
      ],
      "name": "transferFrom",
      "outputs": [],
      "stateMutability": "nonpayable",
      "type": "function"
    },
    {
      "inputs": [
        {
          "internalType": "address",
          "name": "newOwner",
          "type": "address"
        }
      ],
      "name": "transferOwnership",
      "outputs": [],
      "stateMutability": "nonpayable",
      "type": "function"
    },
    {
      "inputs": [
        {
          "internalType": "address",
          "name": "_owner",
          "type": "address"
        }
      ],
      "name": "walletOfOwner",
      "outputs": [
        {
          "internalType": "uint256[]",
          "name": "",
          "type": "uint256[]"
        }
      ],
      "stateMutability": "view",
      "type": "function"
    },
    {
      "inputs": [
        {
          "internalType": "uint256",
          "name": "_mintAmount",
          "type": "uint256"
        },
        {
          "internalType": "bytes32[]",
          "name": "proof",
          "type": "bytes32[]"
        }
      ],
      "name": "whitelistMint",
      "outputs": [],
      "stateMutability": "payable",
      "type": "function"
    },
    {
      "inputs": [],
      "name": "whitelist_cost",
      "outputs": [
        {
          "internalType": "uint256",
          "name": "",
          "type": "uint256"
        }
      ],
      "stateMutability": "view",
      "type": "function"
    },
    {
      "inputs": [],
      "name": "withdrawPayments",
      "outputs": [],
      "stateMutability": "payable",
      "type": "function"
    }
  ],
  "bytecode": "0x60806040526040518060400160405280600581526020017f2e6a736f6e000000000000000000000000000000000000000000000000000000815250600c90816200004a919062000a48565b506040518060400160405280733b1cc85f65223544a807b43d164a0bcc99ef662373ffffffffffffffffffffffffffffffffffffffff1673ffffffffffffffffffffffffffffffffffffffff168152602001736d98fb0308b99e3e7f89e91cf9565378aebac2e173ffffffffffffffffffffffffffffffffffffffff1673ffffffffffffffffffffffffffffffffffffffff16815250600d906002620000f29291906200072d565b50662386f26fc10000601255662386f26fc1000060135560036014556014601555600a601655600a6017556001601860006101000a81548160ff0219169083151502179055506001601860016101000a81548160ff0219169083151502179055506000601860026101000a81548160ff0219169083151502179055506000601860036101000a81548160ff0219169083151502179055506040518060400160405280601081526020017f536d617274204d696e647a205465737400000000000000000000000000000000815250601a9081620001cf919062000a48565b506040518060400160405280600481526020017f534d445a00000000000000000000000000000000000000000000000000000000815250601b908162000216919062000a48565b506040518060600160405280603581526020016200627d60359139601c908162000241919062000a48565b506040518060800160405280604181526020016200623c60419139601d90816200026c919062000a48565b507f9209c7c878c5f79446bae86a7e990639b243ef91f3c1791ea48e483888e0b92e60001b601e55348015620002a157600080fd5b50601a8054620002b19062000837565b80601f0160208091040260200160405190810160405280929190818152602001828054620002df9062000837565b8015620003305780601f10620003045761010080835404028352916020019162000330565b820191906000526020600020905b8154815290600101906020018083116200031257829003601f168201915b5050505050601b8054620003449062000837565b80601f0160208091040260200160405190810160405280929190818152602001828054620003729062000837565b8015620003c35780601f106200039757610100808354040283529160200191620003c3565b820191906000526020600020905b815481529060010190602001808311620003a557829003601f168201915b50505050508160009081620003d9919062000a48565b508060019081620003eb919062000a48565b5050506200040e620004026200055a60201b60201c565b6200056260201b60201c565b620004b1601c8054620004219062000837565b80601f01602080910402602001604051908101604052809291908181526020018280546200044f9062000837565b8015620004a05780601f106200047457610100808354040283529160200191620004a0565b820191906000526020600020905b8154815290600101906020018083116200048257829003601f168201915b50505050506200062860201b60201c565b62000554601d8054620004c49062000837565b80601f0160208091040260200160405190810160405280929190818152602001828054620004f29062000837565b8015620005435780601f10620005175761010080835404028352916020019162000543565b820191906000526020600020905b8154815290600101906020018083116200052557829003601f168201915b50505050506200064d60201b60201c565b62000bb2565b600033905090565b6000600a60009054906101000a900473ffffffffffffffffffffffffffffffffffffffff16905081600a60006101000a81548173ffffffffffffffffffffffffffffffffffffffff021916908373ffffffffffffffffffffffffffffffffffffffff1602179055508173ffffffffffffffffffffffffffffffffffffffff168173ffffffffffffffffffffffffffffffffffffffff167f8be0079c531659141344cd1fd0a4f28419497f9722a3daafe3b4186f6b6457e060405160405180910390a35050565b620006386200067260201b60201c565b80600b908162000649919062000a48565b5050565b6200065d6200067260201b60201c565b80601990816200066e919062000a48565b5050565b620006826200055a60201b60201c565b73ffffffffffffffffffffffffffffffffffffffff16620006a86200070360201b60201c565b73ffffffffffffffffffffffffffffffffffffffff161462000701576040517f08c379a0000000000000000000000000000000000000000000000000000000008152600401620006f89062000b90565b60405180910390fd5b565b6000600a60009054906101000a900473ffffffffffffffffffffffffffffffffffffffff16905090565b82600581019282156200079c579160200282015b828111156200079b5782518260006101000a81548173ffffffffffffffffffffffffffffffffffffffff021916908373ffffffffffffffffffffffffffffffffffffffff1602179055509160200191906001019062000741565b5b509050620007ab9190620007af565b5090565b5b80821115620007ca576000816000905550600101620007b0565b5090565b600081519050919050565b7f4e487b7100000000000000000000000000000000000000000000000000000000600052604160045260246000fd5b7f4e487b7100000000000000000000000000000000000000000000000000000000600052602260045260246000fd5b600060028204905060018216806200085057607f821691505b60208210810362000866576200086562000808565b5b50919050565b60008190508160005260206000209050919050565b60006020601f8301049050919050565b600082821b905092915050565b600060088302620008d07fffffffffffffffffffffffffffffffffffffffffffffffffffffffffffffffff8262000891565b620008dc868362000891565b95508019841693508086168417925050509392505050565b6000819050919050565b6000819050919050565b600062000929620009236200091d84620008f4565b620008fe565b620008f4565b9050919050565b6000819050919050565b620009458362000908565b6200095d620009548262000930565b8484546200089e565b825550505050565b600090565b6200097462000965565b620009818184846200093a565b505050565b5b81811015620009a9576200099d6000826200096a565b60018101905062000987565b5050565b601f821115620009f857620009c2816200086c565b620009cd8462000881565b81016020851015620009dd578190505b620009f5620009ec8562000881565b83018262000986565b50505b505050565b600082821c905092915050565b600062000a1d60001984600802620009fd565b1980831691505092915050565b600062000a38838362000a0a565b9150826002028217905092915050565b62000a5382620007ce565b67ffffffffffffffff81111562000a6f5762000a6e620007d9565b5b62000a7b825462000837565b62000a88828285620009ad565b600060209050601f83116001811462000ac0576000841562000aab578287015190505b62000ab7858262000a2a565b86555062000b27565b601f19841662000ad0866200086c565b60005b8281101562000afa5784890151825560018201915060208501945060208101905062000ad3565b8683101562000b1a578489015162000b16601f89168262000a0a565b8355505b6001600288020188555050505b505050505050565b600082825260208201905092915050565b7f4f776e61626c653a2063616c6c6572206973206e6f7420746865206f776e6572600082015250565b600062000b7860208362000b2f565b915062000b858262000b40565b602082019050919050565b6000602082019050818103600083015262000bab8162000b69565b9050919050565b61567a8062000bc26000396000f3fe6080604052600436106103765760003560e01c80636103d70b116101d1578063b8a20ed011610102578063d5abeb01116100a0578063ebf0c7171161006f578063ebf0c71714610ca5578063f2c4ce1e14610cd0578063f2fde38b14610cf9578063fea6a83214610d2257610376565b8063d5abeb0114610bd7578063da3ef23f14610c02578063e985e9c514610c2b578063eaf3d77314610c6857610376565b8063c6682862116100dc578063c668286214610b28578063c87b56dd14610b53578063d28d885214610b90578063d2cab05614610bbb57610376565b8063b8a20ed014610a83578063ba44eecf14610ac0578063bcc9ca5b14610afd57610376565b80638da5cb5b1161016f578063a22cb46511610149578063a22cb465146109ef578063a475b5dd14610a18578063b09f126614610a2f578063b88d4fde14610a5a57610376565b80638da5cb5b1461096e57806395d89b4114610999578063a0617ad0146109c457610376565b806370a08231116101ab57806370a08231146108c8578063715018a6146109055780637cb647591461091c5780637f00c7a61461094557610376565b80636103d70b146108585780636352211e1461086257806364856c621461089f57610376565b80632db11544116102ab57806344a0d68a11610249578063518302271161022357806351830227146107c257806355f804b3146107ed5780635c975abb146108165780635f18f6531461084157610376565b806344a0d68a14610731578063495906571461075a5780634f6ccce71461078557610376565b80632f745c59116102855780632f745c591461066357806338b811d5146106a057806342842e0e146106cb578063438b6300146106f457610376565b80632db11544146105f35780632eb285271461060f5780632f48de791461063a57610376565b80630c030dd0116103185780631de18b36116102f25780631de18b36146105495780631f46452f14610574578063239c70ae1461059f57806323b872dd146105ca57610376565b80630c030dd0146104c857806313faede6146104f357806318160ddd1461051e57610376565b8063081812fc11610354578063081812fc1461040c578063081c8c4414610449578063085c9bac14610474578063095ea7b31461049f57610376565b806301ffc9a71461037b57806302329a29146103b857806306fdde03146103e1575b600080fd5b34801561038757600080fd5b506103a2600480360381019061039d91906139bd565b610d4d565b6040516103af9190613a05565b60405180910390f35b3480156103c457600080fd5b506103df60048036038101906103da9190613a4c565b610dc7565b005b3480156103ed57600080fd5b506103f6610dec565b6040516104039190613b09565b60405180910390f35b34801561041857600080fd5b50610433600480360381019061042e9190613b61565b610e7e565b6040516104409190613bcf565b60405180910390f35b34801561045557600080fd5b5061045e610ec4565b60405161046b9190613b09565b60405180910390f35b34801561048057600080fd5b50610489610f52565b6040516104969190613a05565b60405180910390f35b3480156104ab57600080fd5b506104c660048036038101906104c19190613c16565b610f65565b005b3480156104d457600080fd5b506104dd61107c565b6040516104ea9190613c65565b60405180910390f35b3480156104ff57600080fd5b5061050861108b565b6040516105159190613c65565b60405180910390f35b34801561052a57600080fd5b50610533611091565b6040516105409190613c65565b60405180910390f35b34801561055557600080fd5b5061055e61109e565b60405161056b9190613b09565b60405180910390f35b34801561058057600080fd5b5061058961112c565b6040516105969190613c65565b60405180910390f35b3480156105ab57600080fd5b506105b4611136565b6040516105c19190613c65565b60405180910390f35b3480156105d657600080fd5b506105f160048036038101906105ec9190613c80565b61113c565b005b61060d60048036038101906106089190613b61565b61119c565b005b34801561061b57600080fd5b5061062461130d565b6040516106319190613c65565b60405180910390f35b34801561064657600080fd5b50610661600480360381019061065c9190613cd3565b611313565b005b34801561066f57600080fd5b5061068a60048036038101906106859190613c16565b611353565b6040516106979190613c65565b60405180910390f35b3480156106ac57600080fd5b506106b56113f8565b6040516106c29190613c65565b60405180910390f35b3480156106d757600080fd5b506106f260048036038101906106ed9190613c80565b6113fe565b005b34801561070057600080fd5b5061071b60048036038101906107169190613d13565b61141e565b6040516107289190613dfe565b60405180910390f35b34801561073d57600080fd5b5061075860048036038101906107539190613b61565b6114cc565b005b34801561076657600080fd5b5061076f6114de565b60405161077c9190613e39565b60405180910390f35b34801561079157600080fd5b506107ac60048036038101906107a79190613b61565b6114e8565b6040516107b99190613c65565b60405180910390f35b3480156107ce57600080fd5b506107d7611559565b6040516107e49190613a05565b60405180910390f35b3480156107f957600080fd5b50610814600480360381019061080f9190613f89565b61156c565b005b34801561082257600080fd5b5061082b611587565b6040516108389190613a05565b60405180910390f35b34801561084d57600080fd5b5061085661159a565b005b610860611600565b005b34801561086e57600080fd5b5061088960048036038101906108849190613b61565b611812565b6040516108969190613bcf565b60405180910390f35b3480156108ab57600080fd5b506108c660048036038101906108c19190613fd2565b611898565b005b3480156108d457600080fd5b506108ef60048036038101906108ea9190613d13565b6118f8565b6040516108fc9190613c65565b60405180910390f35b34801561091157600080fd5b5061091a6119af565b005b34801561092857600080fd5b50610943600480360381019061093e919061403e565b6119c3565b005b34801561095157600080fd5b5061096c60048036038101906109679190613b61565b6119d5565b005b34801561097a57600080fd5b506109836119e7565b6040516109909190613bcf565b60405180910390f35b3480156109a557600080fd5b506109ae611a11565b6040516109bb9190613b09565b60405180910390f35b3480156109d057600080fd5b506109d9611aa3565b6040516109e69190613c65565b60405180910390f35b3480156109fb57600080fd5b50610a166004803603810190610a11919061406b565b611aa9565b005b348015610a2457600080fd5b50610a2d611abf565b005b348015610a3b57600080fd5b50610a44611ae4565b604051610a519190613b09565b60405180910390f35b348015610a6657600080fd5b50610a816004803603810190610a7c919061414c565b611b72565b005b348015610a8f57600080fd5b50610aaa6004803603810190610aa59190614297565b611bd4565b604051610ab79190613a05565b60405180910390f35b348015610acc57600080fd5b50610ae76004803603810190610ae29190613b61565b611beb565b604051610af49190613bcf565b60405180910390f35b348015610b0957600080fd5b50610b12611c21565b604051610b1f9190613a05565b60405180910390f35b348015610b3457600080fd5b50610b3d611c34565b604051610b4a9190613b09565b60405180910390f35b348015610b5f57600080fd5b50610b7a6004803603810190610b759190613b61565b611cc2565b604051610b879190613b09565b60405180910390f35b348015610b9c57600080fd5b50610ba5611e1a565b604051610bb29190613b09565b60405180910390f35b610bd56004803603810190610bd091906142f3565b611ea8565b005b348015610be357600080fd5b50610bec612089565b604051610bf99190613c65565b60405180910390f35b348015610c0e57600080fd5b50610c296004803603810190610c249190613f89565b61208f565b005b348015610c3757600080fd5b50610c526004803603810190610c4d919061434f565b6120aa565b604051610c5f9190613a05565b60405180910390f35b348015610c7457600080fd5b50610c8f6004803603810190610c8a9190613b61565b61213e565b604051610c9c9190613bcf565b60405180910390f35b348015610cb157600080fd5b50610cba61217d565b604051610cc79190613e39565b60405180910390f35b348015610cdc57600080fd5b50610cf76004803603810190610cf29190613f89565b612183565b005b348015610d0557600080fd5b50610d206004803603810190610d1b9190613d13565b61219e565b005b348015610d2e57600080fd5b50610d37612221565b604051610d449190613b09565b60405180910390f35b60007f780e9d63000000000000000000000000000000000000000000000000000000007bffffffffffffffffffffffffffffffffffffffffffffffffffffffff1916827bffffffffffffffffffffffffffffffffffffffffffffffffffffffff19161480610dc05750610dbf826122af565b5b9050919050565b610dcf612391565b80601860026101000a81548160ff02191690831515021790555050565b606060008054610dfb906143be565b80601f0160208091040260200160405190810160405280929190818152602001828054610e27906143be565b8015610e745780601f10610e4957610100808354040283529160200191610e74565b820191906000526020600020905b815481529060010190602001808311610e5757829003601f168201915b5050505050905090565b6000610e898261240f565b6004600083815260200190815260200160002060009054906101000a900473ffffffffffffffffffffffffffffffffffffffff169050919050565b60198054610ed1906143be565b80601f0160208091040260200160405190810160405280929190818152602001828054610efd906143be565b8015610f4a5780601f10610f1f57610100808354040283529160200191610f4a565b820191906000526020600020905b815481529060010190602001808311610f2d57829003601f168201915b505050505081565b601860019054906101000a900460ff1681565b6000610f7082611812565b90508073ffffffffffffffffffffffffffffffffffffffff168373ffffffffffffffffffffffffffffffffffffffff1603610fe0576040517f08c379a0000000000000000000000000000000000000000000000000000000008152600401610fd790614461565b60405180910390fd5b8073ffffffffffffffffffffffffffffffffffffffff16610fff61245a565b73ffffffffffffffffffffffffffffffffffffffff16148061102e575061102d8161102861245a565b6120aa565b5b61106d576040517f08c379a0000000000000000000000000000000000000000000000000000000008152600401611064906144f3565b60405180910390fd5b6110778383612462565b505050565b6000611086611091565b905090565b60125481565b6000600880549050905090565b601c80546110ab906143be565b80601f01602080910402602001604051908101604052809291908181526020018280546110d7906143be565b80156111245780601f106110f957610100808354040283529160200191611124565b820191906000526020600020905b81548152906001019060200180831161110757829003601f168201915b505050505081565b6000601654905090565b60145481565b61114d61114761245a565b8261251b565b61118c576040517f08c379a000000000000000000000000000000000000000000000000000000000815260040161118390614585565b60405180910390fd5b6111978383836125b0565b505050565b60006111a6611091565b9050601860009054906101000a900460ff166111f7576040517f08c379a00000000000000000000000000000000000000000000000000000000081526004016111ee906145f1565b60405180910390fd5b601860029054906101000a900460ff161561121157600080fd5b6000821161121e57600080fd5b601454821115611263576040517f08c379a000000000000000000000000000000000000000000000000000000000815260040161125a9061465d565b60405180910390fd5b601654828261127291906146ac565b111561127d57600080fd5b6112856119e7565b73ffffffffffffffffffffffffffffffffffffffff163373ffffffffffffffffffffffffffffffffffffffff16146112d257816012546112c591906146e0565b3410156112d157600080fd5b5b6000600190505b828111611308576112f53382846112f091906146ac565b6128a9565b808061130090614722565b9150506112d9565b505050565b60175481565b61131b612391565b81601860006101000a81548160ff02191690831515021790555080601860016101000a81548160ff0219169083151502179055505050565b600061135e836118f8565b821061139f576040517f08c379a0000000000000000000000000000000000000000000000000000000008152600401611396906147dc565b60405180910390fd5b600660008473ffffffffffffffffffffffffffffffffffffffff1673ffffffffffffffffffffffffffffffffffffffff168152602001908152602001600020600083815260200190815260200160002054905092915050565b60135481565b61141983838360405180602001604052806000815250611b72565b505050565b6060600061142b836118f8565b905060008167ffffffffffffffff81111561144957611448613e5e565b5b6040519080825280602002602001820160405280156114775781602001602082028036833780820191505090505b50905060005b828110156114c15761148f8582611353565b8282815181106114a2576114a16147fc565b5b60200260200101818152505080806114b990614722565b91505061147d565b508092505050919050565b6114d4612391565b8060128190555050565b6000601e54905090565b60006114f2611091565b8210611533576040517f08c379a000000000000000000000000000000000000000000000000000000000815260040161152a9061489d565b60405180910390fd5b60088281548110611547576115466147fc565b5b90600052602060002001549050919050565b601860039054906101000a900460ff1681565b611574612391565b80600b90816115839190614a69565b5050565b601860029054906101000a900460ff1681565b6115a2612391565b601554601654106115e8576040517f08c379a00000000000000000000000000000000000000000000000000000000081526004016115df90614b87565b60405180910390fd5b6017546016546115f891906146ac565b601681905550565b611608612391565b6000600d60006005811061161f5761161e6147fc565b5b0160009054906101000a900473ffffffffffffffffffffffffffffffffffffffff1673ffffffffffffffffffffffffffffffffffffffff16606460054761166691906146e0565b6116709190614bd6565b60405161167c90614c38565b60006040518083038185875af1925050503d80600081146116b9576040519150601f19603f3d011682016040523d82523d6000602084013e6116be565b606091505b50509050806116cc57600080fd5b6000600d6001600581106116e3576116e26147fc565b5b0160009054906101000a900473ffffffffffffffffffffffffffffffffffffffff1673ffffffffffffffffffffffffffffffffffffffff16606460054761172a91906146e0565b6117349190614bd6565b60405161174090614c38565b60006040518083038185875af1925050503d806000811461177d576040519150601f19603f3d011682016040523d82523d6000602084013e611782565b606091505b505090508061179057600080fd5b600061179a6119e7565b73ffffffffffffffffffffffffffffffffffffffff16476040516117bd90614c38565b60006040518083038185875af1925050503d80600081146117fa576040519150601f19603f3d011682016040523d82523d6000602084013e6117ff565b606091505b505090508061180d57600080fd5b505050565b60008061181e836128c7565b9050600073ffffffffffffffffffffffffffffffffffffffff168173ffffffffffffffffffffffffffffffffffffffff160361188f576040517f08c379a000000000000000000000000000000000000000000000000000000000815260040161188690614c99565b60405180910390fd5b80915050919050565b6118a0612391565b80600d83600581106118b5576118b46147fc565b5b0160006101000a81548173ffffffffffffffffffffffffffffffffffffffff021916908373ffffffffffffffffffffffffffffffffffffffff1602179055505050565b60008073ffffffffffffffffffffffffffffffffffffffff168273ffffffffffffffffffffffffffffffffffffffff1603611968576040517f08c379a000000000000000000000000000000000000000000000000000000000815260040161195f90614d2b565b60405180910390fd5b600360008373ffffffffffffffffffffffffffffffffffffffff1673ffffffffffffffffffffffffffffffffffffffff168152602001908152602001600020549050919050565b6119b7612391565b6119c16000612904565b565b6119cb612391565b80601e8190555050565b6119dd612391565b8060148190555050565b6000600a60009054906101000a900473ffffffffffffffffffffffffffffffffffffffff16905090565b606060018054611a20906143be565b80601f0160208091040260200160405190810160405280929190818152602001828054611a4c906143be565b8015611a995780601f10611a6e57610100808354040283529160200191611a99565b820191906000526020600020905b815481529060010190602001808311611a7c57829003601f168201915b5050505050905090565b60155481565b611abb611ab461245a565b83836129ca565b5050565b611ac7612391565b6001601860036101000a81548160ff021916908315150217905550565b601b8054611af1906143be565b80601f0160208091040260200160405190810160405280929190818152602001828054611b1d906143be565b8015611b6a5780601f10611b3f57610100808354040283529160200191611b6a565b820191906000526020600020905b815481529060010190602001808311611b4d57829003601f168201915b505050505081565b611b83611b7d61245a565b8361251b565b611bc2576040517f08c379a0000000000000000000000000000000000000000000000000000000008152600401611bb990614585565b60405180910390fd5b611bce84848484612b36565b50505050565b6000611be383601e5484612b92565b905092915050565b600d8160058110611bfb57600080fd5b016000915054906101000a900473ffffffffffffffffffffffffffffffffffffffff1681565b601860009054906101000a900460ff1681565b600c8054611c41906143be565b80601f0160208091040260200160405190810160405280929190818152602001828054611c6d906143be565b8015611cba5780601f10611c8f57610100808354040283529160200191611cba565b820191906000526020600020905b815481529060010190602001808311611c9d57829003601f168201915b505050505081565b6060611ccd82612ba9565b611d0c576040517f08c379a0000000000000000000000000000000000000000000000000000000008152600401611d0390614dbd565b60405180910390fd5b60001515601860039054906101000a900460ff16151503611db95760198054611d34906143be565b80601f0160208091040260200160405190810160405280929190818152602001828054611d60906143be565b8015611dad5780601f10611d8257610100808354040283529160200191611dad565b820191906000526020600020905b815481529060010190602001808311611d9057829003601f168201915b50505050509050611e15565b6000611dc3612bea565b90506000815111611de35760405180602001604052806000815250611e11565b80611ded84612c7c565b600c604051602001611e0193929190614e9c565b6040516020818303038152906040525b9150505b919050565b601a8054611e27906143be565b80601f0160208091040260200160405190810160405280929190818152602001828054611e53906143be565b8015611ea05780601f10611e7557610100808354040283529160200191611ea0565b820191906000526020600020905b815481529060010190602001808311611e8357829003601f168201915b505050505081565b6000611eb2611091565b9050601860019054906101000a900460ff16611f03576040517f08c379a0000000000000000000000000000000000000000000000000000000008152600401611efa90614f19565b60405180910390fd5b611f338233604051602001611f189190614f81565b60405160208183030381529060405280519060200120611bd4565b611f72576040517f08c379a0000000000000000000000000000000000000000000000000000000008152600401611f6990614fe8565b60405180910390fd5b601860029054906101000a900460ff1615611f8c57600080fd5b60008311611f9957600080fd5b601454831115611fde576040517f08c379a0000000000000000000000000000000000000000000000000000000008152600401611fd590615054565b60405180910390fd5b6016548382611fed91906146ac565b1115611ff857600080fd5b6120006119e7565b73ffffffffffffffffffffffffffffffffffffffff163373ffffffffffffffffffffffffffffffffffffffff161461204d578260125461204091906146e0565b34101561204c57600080fd5b5b6000600190505b8381116120835761207033828461206b91906146ac565b6128a9565b808061207b90614722565b915050612054565b50505050565b60165481565b612097612391565b80600c90816120a69190614a69565b5050565b6000600560008473ffffffffffffffffffffffffffffffffffffffff1673ffffffffffffffffffffffffffffffffffffffff16815260200190815260200160002060008373ffffffffffffffffffffffffffffffffffffffff1673ffffffffffffffffffffffffffffffffffffffff16815260200190815260200160002060009054906101000a900460ff16905092915050565b6000600d8260058110612154576121536147fc565b5b0160009054906101000a900473ffffffffffffffffffffffffffffffffffffffff169050919050565b601e5481565b61218b612391565b806019908161219a9190614a69565b5050565b6121a6612391565b600073ffffffffffffffffffffffffffffffffffffffff168173ffffffffffffffffffffffffffffffffffffffff1603612215576040517f08c379a000000000000000000000000000000000000000000000000000000000815260040161220c906150e6565b60405180910390fd5b61221e81612904565b50565b601d805461222e906143be565b80601f016020809104026020016040519081016040528092919081815260200182805461225a906143be565b80156122a75780601f1061227c576101008083540402835291602001916122a7565b820191906000526020600020905b81548152906001019060200180831161228a57829003601f168201915b505050505081565b60007f80ac58cd000000000000000000000000000000000000000000000000000000007bffffffffffffffffffffffffffffffffffffffffffffffffffffffff1916827bffffffffffffffffffffffffffffffffffffffffffffffffffffffff1916148061237a57507f5b5e139f000000000000000000000000000000000000000000000000000000007bffffffffffffffffffffffffffffffffffffffffffffffffffffffff1916827bffffffffffffffffffffffffffffffffffffffffffffffffffffffff1916145b8061238a575061238982612d4a565b5b9050919050565b61239961245a565b73ffffffffffffffffffffffffffffffffffffffff166123b76119e7565b73ffffffffffffffffffffffffffffffffffffffff161461240d576040517f08c379a000000000000000000000000000000000000000000000000000000000815260040161240490615152565b60405180910390fd5b565b61241881612ba9565b612457576040517f08c379a000000000000000000000000000000000000000000000000000000000815260040161244e90614c99565b60405180910390fd5b50565b600033905090565b816004600083815260200190815260200160002060006101000a81548173ffffffffffffffffffffffffffffffffffffffff021916908373ffffffffffffffffffffffffffffffffffffffff160217905550808273ffffffffffffffffffffffffffffffffffffffff166124d583611812565b73ffffffffffffffffffffffffffffffffffffffff167f8c5be1e5ebec7d5bd14f71427d1e84f3dd0314c0f7b2291e5b200ac8c7c3b92560405160405180910390a45050565b60008061252783611812565b90508073ffffffffffffffffffffffffffffffffffffffff168473ffffffffffffffffffffffffffffffffffffffff161480612569575061256881856120aa565b5b806125a757508373ffffffffffffffffffffffffffffffffffffffff1661258f84610e7e565b73ffffffffffffffffffffffffffffffffffffffff16145b91505092915050565b8273ffffffffffffffffffffffffffffffffffffffff166125d082611812565b73ffffffffffffffffffffffffffffffffffffffff1614612626576040517f08c379a000000000000000000000000000000000000000000000000000000000815260040161261d906151e4565b60405180910390fd5b600073ffffffffffffffffffffffffffffffffffffffff168273ffffffffffffffffffffffffffffffffffffffff1603612695576040517f08c379a000000000000000000000000000000000000000000000000000000000815260040161268c90615276565b60405180910390fd5b6126a28383836001612db4565b8273ffffffffffffffffffffffffffffffffffffffff166126c282611812565b73ffffffffffffffffffffffffffffffffffffffff1614612718576040517f08c379a000000000000000000000000000000000000000000000000000000000815260040161270f906151e4565b60405180910390fd5b6004600082815260200190815260200160002060006101000a81549073ffffffffffffffffffffffffffffffffffffffff02191690556001600360008573ffffffffffffffffffffffffffffffffffffffff1673ffffffffffffffffffffffffffffffffffffffff168152602001908152602001600020600082825403925050819055506001600360008473ffffffffffffffffffffffffffffffffffffffff1673ffffffffffffffffffffffffffffffffffffffff16815260200190815260200160002060008282540192505081905550816002600083815260200190815260200160002060006101000a81548173ffffffffffffffffffffffffffffffffffffffff021916908373ffffffffffffffffffffffffffffffffffffffff160217905550808273ffffffffffffffffffffffffffffffffffffffff168473ffffffffffffffffffffffffffffffffffffffff167fddf252ad1be2c89b69c2b068fc378daa952ba7f163c4a11628f55a4df523b3ef60405160405180910390a46128a48383836001612f12565b505050565b6128c3828260405180602001604052806000815250612f18565b5050565b60006002600083815260200190815260200160002060009054906101000a900473ffffffffffffffffffffffffffffffffffffffff169050919050565b6000600a60009054906101000a900473ffffffffffffffffffffffffffffffffffffffff16905081600a60006101000a81548173ffffffffffffffffffffffffffffffffffffffff021916908373ffffffffffffffffffffffffffffffffffffffff1602179055508173ffffffffffffffffffffffffffffffffffffffff168173ffffffffffffffffffffffffffffffffffffffff167f8be0079c531659141344cd1fd0a4f28419497f9722a3daafe3b4186f6b6457e060405160405180910390a35050565b8173ffffffffffffffffffffffffffffffffffffffff168373ffffffffffffffffffffffffffffffffffffffff1603612a38576040517f08c379a0000000000000000000000000000000000000000000000000000000008152600401612a2f906152e2565b60405180910390fd5b80600560008573ffffffffffffffffffffffffffffffffffffffff1673ffffffffffffffffffffffffffffffffffffffff16815260200190815260200160002060008473ffffffffffffffffffffffffffffffffffffffff1673ffffffffffffffffffffffffffffffffffffffff16815260200190815260200160002060006101000a81548160ff0219169083151502179055508173ffffffffffffffffffffffffffffffffffffffff168373ffffffffffffffffffffffffffffffffffffffff167f17307eab39ab6107e8899845ad3d59bd9653f200f220920489ca2b5937696c3183604051612b299190613a05565b60405180910390a3505050565b612b418484846125b0565b612b4d84848484612f73565b612b8c576040517f08c379a0000000000000000000000000000000000000000000000000000000008152600401612b8390615374565b60405180910390fd5b50505050565b600082612b9f85846130fa565b1490509392505050565b60008073ffffffffffffffffffffffffffffffffffffffff16612bcb836128c7565b73ffffffffffffffffffffffffffffffffffffffff1614159050919050565b6060600b8054612bf9906143be565b80601f0160208091040260200160405190810160405280929190818152602001828054612c25906143be565b8015612c725780601f10612c4757610100808354040283529160200191612c72565b820191906000526020600020905b815481529060010190602001808311612c5557829003601f168201915b5050505050905090565b606060006001612c8b84613150565b01905060008167ffffffffffffffff811115612caa57612ca9613e5e565b5b6040519080825280601f01601f191660200182016040528015612cdc5781602001600182028036833780820191505090505b509050600082602001820190505b600115612d3f578080600190039150507f3031323334353637383961626364656600000000000000000000000000000000600a86061a8153600a8581612d3357612d32614ba7565b5b04945060008503612cea575b819350505050919050565b60007f01ffc9a7000000000000000000000000000000000000000000000000000000007bffffffffffffffffffffffffffffffffffffffffffffffffffffffff1916827bffffffffffffffffffffffffffffffffffffffffffffffffffffffff1916149050919050565b612dc0848484846132a3565b6001811115612e04576040517f08c379a0000000000000000000000000000000000000000000000000000000008152600401612dfb90615406565b60405180910390fd5b6000829050600073ffffffffffffffffffffffffffffffffffffffff168573ffffffffffffffffffffffffffffffffffffffff1603612e4b57612e46816133c9565b612e8a565b8373ffffffffffffffffffffffffffffffffffffffff168573ffffffffffffffffffffffffffffffffffffffff1614612e8957612e888582613412565b5b5b600073ffffffffffffffffffffffffffffffffffffffff168473ffffffffffffffffffffffffffffffffffffffff1603612ecc57612ec78161357f565b612f0b565b8473ffffffffffffffffffffffffffffffffffffffff168473ffffffffffffffffffffffffffffffffffffffff1614612f0a57612f098482613650565b5b5b5050505050565b50505050565b612f2283836136cf565b612f2f6000848484612f73565b612f6e576040517f08c379a0000000000000000000000000000000000000000000000000000000008152600401612f6590615374565b60405180910390fd5b505050565b6000612f948473ffffffffffffffffffffffffffffffffffffffff166138ec565b156130ed578373ffffffffffffffffffffffffffffffffffffffff1663150b7a02612fbd61245a565b8786866040518563ffffffff1660e01b8152600401612fdf949392919061547b565b6020604051808303816000875af192505050801561301b57506040513d601f19601f8201168201806040525081019061301891906154dc565b60015b61309d573d806000811461304b576040519150601f19603f3d011682016040523d82523d6000602084013e613050565b606091505b506000815103613095576040517f08c379a000000000000000000000000000000000000000000000000000000000815260040161308c90615374565b60405180910390fd5b805181602001fd5b63150b7a0260e01b7bffffffffffffffffffffffffffffffffffffffffffffffffffffffff1916817bffffffffffffffffffffffffffffffffffffffffffffffffffffffff1916149150506130f2565b600190505b949350505050565b60008082905060005b84518110156131455761313082868381518110613123576131226147fc565b5b602002602001015161390f565b9150808061313d90614722565b915050613103565b508091505092915050565b600080600090507a184f03e93ff9f4daa797ed6e38ed64bf6a1f01000000000000000083106131ae577a184f03e93ff9f4daa797ed6e38ed64bf6a1f01000000000000000083816131a4576131a3614ba7565b5b0492506040810190505b6d04ee2d6d415b85acef810000000083106131eb576d04ee2d6d415b85acef810000000083816131e1576131e0614ba7565b5b0492506020810190505b662386f26fc10000831061321a57662386f26fc1000083816132105761320f614ba7565b5b0492506010810190505b6305f5e1008310613243576305f5e100838161323957613238614ba7565b5b0492506008810190505b612710831061326857612710838161325e5761325d614ba7565b5b0492506004810190505b6064831061328b576064838161328157613280614ba7565b5b0492506002810190505b600a831061329a576001810190505b80915050919050565b60018111156133c357600073ffffffffffffffffffffffffffffffffffffffff168473ffffffffffffffffffffffffffffffffffffffff16146133375780600360008673ffffffffffffffffffffffffffffffffffffffff1673ffffffffffffffffffffffffffffffffffffffff168152602001908152602001600020600082825461332f9190615509565b925050819055505b600073ffffffffffffffffffffffffffffffffffffffff168373ffffffffffffffffffffffffffffffffffffffff16146133c25780600360008573ffffffffffffffffffffffffffffffffffffffff1673ffffffffffffffffffffffffffffffffffffffff16815260200190815260200160002060008282546133ba91906146ac565b925050819055505b5b50505050565b6008805490506009600083815260200190815260200160002081905550600881908060018154018082558091505060019003906000526020600020016000909190919091505550565b6000600161341f846118f8565b6134299190615509565b905060006007600084815260200190815260200160002054905081811461350e576000600660008673ffffffffffffffffffffffffffffffffffffffff1673ffffffffffffffffffffffffffffffffffffffff168152602001908152602001600020600084815260200190815260200160002054905080600660008773ffffffffffffffffffffffffffffffffffffffff1673ffffffffffffffffffffffffffffffffffffffff168152602001908152602001600020600084815260200190815260200160002081905550816007600083815260200190815260200160002081905550505b6007600084815260200190815260200160002060009055600660008573ffffffffffffffffffffffffffffffffffffffff1673ffffffffffffffffffffffffffffffffffffffff16815260200190815260200160002060008381526020019081526020016000206000905550505050565b600060016008805490506135939190615509565b90506000600960008481526020019081526020016000205490506000600883815481106135c3576135c26147fc565b5b9060005260206000200154905080600883815481106135e5576135e46147fc565b5b9060005260206000200181905550816009600083815260200190815260200160002081905550600960008581526020019081526020016000206000905560088054806136345761363361553d565b5b6001900381819060005260206000200160009055905550505050565b600061365b836118f8565b905081600660008573ffffffffffffffffffffffffffffffffffffffff1673ffffffffffffffffffffffffffffffffffffffff168152602001908152602001600020600083815260200190815260200160002081905550806007600084815260200190815260200160002081905550505050565b600073ffffffffffffffffffffffffffffffffffffffff168273ffffffffffffffffffffffffffffffffffffffff160361373e576040517f08c379a0000000000000000000000000000000000000000000000000000000008152600401613735906155b8565b60405180910390fd5b61374781612ba9565b15613787576040517f08c379a000000000000000000000000000000000000000000000000000000000815260040161377e90615624565b60405180910390fd5b613795600083836001612db4565b61379e81612ba9565b156137de576040517f08c379a00000000000000000000000000000000000000000000000000000000081526004016137d590615624565b60405180910390fd5b6001600360008473ffffffffffffffffffffffffffffffffffffffff1673ffffffffffffffffffffffffffffffffffffffff16815260200190815260200160002060008282540192505081905550816002600083815260200190815260200160002060006101000a81548173ffffffffffffffffffffffffffffffffffffffff021916908373ffffffffffffffffffffffffffffffffffffffff160217905550808273ffffffffffffffffffffffffffffffffffffffff16600073ffffffffffffffffffffffffffffffffffffffff167fddf252ad1be2c89b69c2b068fc378daa952ba7f163c4a11628f55a4df523b3ef60405160405180910390a46138e8600083836001612f12565b5050565b6000808273ffffffffffffffffffffffffffffffffffffffff163b119050919050565b600081831061392757613922828461393a565b613932565b613931838361393a565b5b905092915050565b600082600052816020526040600020905092915050565b6000604051905090565b600080fd5b600080fd5b60007fffffffff0000000000000000000000000000000000000000000000000000000082169050919050565b61399a81613965565b81146139a557600080fd5b50565b6000813590506139b781613991565b92915050565b6000602082840312156139d3576139d261395b565b5b60006139e1848285016139a8565b91505092915050565b60008115159050919050565b6139ff816139ea565b82525050565b6000602082019050613a1a60008301846139f6565b92915050565b613a29816139ea565b8114613a3457600080fd5b50565b600081359050613a4681613a20565b92915050565b600060208284031215613a6257613a6161395b565b5b6000613a7084828501613a37565b91505092915050565b600081519050919050565b600082825260208201905092915050565b60005b83811015613ab3578082015181840152602081019050613a98565b60008484015250505050565b6000601f19601f8301169050919050565b6000613adb82613a79565b613ae58185613a84565b9350613af5818560208601613a95565b613afe81613abf565b840191505092915050565b60006020820190508181036000830152613b238184613ad0565b905092915050565b6000819050919050565b613b3e81613b2b565b8114613b4957600080fd5b50565b600081359050613b5b81613b35565b92915050565b600060208284031215613b7757613b7661395b565b5b6000613b8584828501613b4c565b91505092915050565b600073ffffffffffffffffffffffffffffffffffffffff82169050919050565b6000613bb982613b8e565b9050919050565b613bc981613bae565b82525050565b6000602082019050613be46000830184613bc0565b92915050565b613bf381613bae565b8114613bfe57600080fd5b50565b600081359050613c1081613bea565b92915050565b60008060408385031215613c2d57613c2c61395b565b5b6000613c3b85828601613c01565b9250506020613c4c85828601613b4c565b9150509250929050565b613c5f81613b2b565b82525050565b6000602082019050613c7a6000830184613c56565b92915050565b600080600060608486031215613c9957613c9861395b565b5b6000613ca786828701613c01565b9350506020613cb886828701613c01565b9250506040613cc986828701613b4c565b9150509250925092565b60008060408385031215613cea57613ce961395b565b5b6000613cf885828601613a37565b9250506020613d0985828601613a37565b9150509250929050565b600060208284031215613d2957613d2861395b565b5b6000613d3784828501613c01565b91505092915050565b600081519050919050565b600082825260208201905092915050565b6000819050602082019050919050565b613d7581613b2b565b82525050565b6000613d878383613d6c565b60208301905092915050565b6000602082019050919050565b6000613dab82613d40565b613db58185613d4b565b9350613dc083613d5c565b8060005b83811015613df1578151613dd88882613d7b565b9750613de383613d93565b925050600181019050613dc4565b5085935050505092915050565b60006020820190508181036000830152613e188184613da0565b905092915050565b6000819050919050565b613e3381613e20565b82525050565b6000602082019050613e4e6000830184613e2a565b92915050565b600080fd5b600080fd5b7f4e487b7100000000000000000000000000000000000000000000000000000000600052604160045260246000fd5b613e9682613abf565b810181811067ffffffffffffffff82111715613eb557613eb4613e5e565b5b80604052505050565b6000613ec8613951565b9050613ed48282613e8d565b919050565b600067ffffffffffffffff821115613ef457613ef3613e5e565b5b613efd82613abf565b9050602081019050919050565b82818337600083830152505050565b6000613f2c613f2784613ed9565b613ebe565b905082815260208101848484011115613f4857613f47613e59565b5b613f53848285613f0a565b509392505050565b600082601f830112613f7057613f6f613e54565b5b8135613f80848260208601613f19565b91505092915050565b600060208284031215613f9f57613f9e61395b565b5b600082013567ffffffffffffffff811115613fbd57613fbc613960565b5b613fc984828501613f5b565b91505092915050565b60008060408385031215613fe957613fe861395b565b5b6000613ff785828601613b4c565b925050602061400885828601613c01565b9150509250929050565b61401b81613e20565b811461402657600080fd5b50565b60008135905061403881614012565b92915050565b6000602082840312156140545761405361395b565b5b600061406284828501614029565b91505092915050565b600080604083850312156140825761408161395b565b5b600061409085828601613c01565b92505060206140a185828601613a37565b9150509250929050565b600067ffffffffffffffff8211156140c6576140c5613e5e565b5b6140cf82613abf565b9050602081019050919050565b60006140ef6140ea846140ab565b613ebe565b90508281526020810184848401111561410b5761410a613e59565b5b614116848285613f0a565b509392505050565b600082601f83011261413357614132613e54565b5b81356141438482602086016140dc565b91505092915050565b600080600080608085870312156141665761416561395b565b5b600061417487828801613c01565b945050602061418587828801613c01565b935050604061419687828801613b4c565b925050606085013567ffffffffffffffff8111156141b7576141b6613960565b5b6141c38782880161411e565b91505092959194509250565b600067ffffffffffffffff8211156141ea576141e9613e5e565b5b602082029050602081019050919050565b600080fd5b600061421361420e846141cf565b613ebe565b90508083825260208201905060208402830185811115614236576142356141fb565b5b835b8181101561425f578061424b8882614029565b845260208401935050602081019050614238565b5050509392505050565b600082601f83011261427e5761427d613e54565b5b813561428e848260208601614200565b91505092915050565b600080604083850312156142ae576142ad61395b565b5b600083013567ffffffffffffffff8111156142cc576142cb613960565b5b6142d885828601614269565b92505060206142e985828601614029565b9150509250929050565b6000806040838503121561430a5761430961395b565b5b600061431885828601613b4c565b925050602083013567ffffffffffffffff81111561433957614338613960565b5b61434585828601614269565b9150509250929050565b600080604083850312156143665761436561395b565b5b600061437485828601613c01565b925050602061438585828601613c01565b9150509250929050565b7f4e487b7100000000000000000000000000000000000000000000000000000000600052602260045260246000fd5b600060028204905060018216806143d657607f821691505b6020821081036143e9576143e861438f565b5b50919050565b7f4552433732313a20617070726f76616c20746f2063757272656e74206f776e6560008201527f7200000000000000000000000000000000000000000000000000000000000000602082015250565b600061444b602183613a84565b9150614456826143ef565b604082019050919050565b6000602082019050818103600083015261447a8161443e565b9050919050565b7f4552433732313a20617070726f76652063616c6c6572206973206e6f7420746f60008201527f6b656e206f776e6572206f7220617070726f76656420666f7220616c6c000000602082015250565b60006144dd603d83613a84565b91506144e882614481565b604082019050919050565b6000602082019050818103600083015261450c816144d0565b9050919050565b7f4552433732313a2063616c6c6572206973206e6f7420746f6b656e206f776e6560008201527f72206f7220617070726f76656400000000000000000000000000000000000000602082015250565b600061456f602d83613a84565b915061457a82614513565b604082019050919050565b6000602082019050818103600083015261459e81614562565b9050919050565b7f5075626c6963204d696e7420436c6f7365640000000000000000000000000000600082015250565b60006145db601283613a84565b91506145e6826145a5565b602082019050919050565b6000602082019050818103600083015261460a816145ce565b9050919050565b7f5075626c6963204d696e7420536f6c64204f7574210000000000000000000000600082015250565b6000614647601583613a84565b915061465282614611565b602082019050919050565b600060208201905081810360008301526146768161463a565b9050919050565b7f4e487b7100000000000000000000000000000000000000000000000000000000600052601160045260246000fd5b60006146b782613b2b565b91506146c283613b2b565b92508282019050808211156146da576146d961467d565b5b92915050565b60006146eb82613b2b565b91506146f683613b2b565b925082820261470481613b2b565b9150828204841483151761471b5761471a61467d565b5b5092915050565b600061472d82613b2b565b91507fffffffffffffffffffffffffffffffffffffffffffffffffffffffffffffffff820361475f5761475e61467d565b5b600182019050919050565b7f455243373231456e756d657261626c653a206f776e657220696e646578206f7560008201527f74206f6620626f756e6473000000000000000000000000000000000000000000602082015250565b60006147c6602b83613a84565b91506147d18261476a565b604082019050919050565b600060208201905081810360008301526147f5816147b9565b9050919050565b7f4e487b7100000000000000000000000000000000000000000000000000000000600052603260045260246000fd5b7f455243373231456e756d657261626c653a20676c6f62616c20696e646578206f60008201527f7574206f6620626f756e64730000000000000000000000000000000000000000602082015250565b6000614887602c83613a84565b91506148928261482b565b604082019050919050565b600060208201905081810360008301526148b68161487a565b9050919050565b60008190508160005260206000209050919050565b60006020601f8301049050919050565b600082821b905092915050565b60006008830261491f7fffffffffffffffffffffffffffffffffffffffffffffffffffffffffffffffff826148e2565b61492986836148e2565b95508019841693508086168417925050509392505050565b6000819050919050565b600061496661496161495c84613b2b565b614941565b613b2b565b9050919050565b6000819050919050565b6149808361494b565b61499461498c8261496d565b8484546148ef565b825550505050565b600090565b6149a961499c565b6149b4818484614977565b505050565b5b818110156149d8576149cd6000826149a1565b6001810190506149ba565b5050565b601f821115614a1d576149ee816148bd565b6149f7846148d2565b81016020851015614a06578190505b614a1a614a12856148d2565b8301826149b9565b50505b505050565b600082821c905092915050565b6000614a4060001984600802614a22565b1980831691505092915050565b6000614a598383614a2f565b9150826002028217905092915050565b614a7282613a79565b67ffffffffffffffff811115614a8b57614a8a613e5e565b5b614a9582546143be565b614aa08282856149dc565b600060209050601f831160018114614ad35760008415614ac1578287015190505b614acb8582614a4d565b865550614b33565b601f198416614ae1866148bd565b60005b82811015614b0957848901518255600182019150602085019450602081019050614ae4565b86831015614b265784890151614b22601f891682614a2f565b8355505b6001600288020188555050505b505050505050565b7f546f74616c204d617820537570706c7920526561636865642121210000000000600082015250565b6000614b71601b83613a84565b9150614b7c82614b3b565b602082019050919050565b60006020820190508181036000830152614ba081614b64565b9050919050565b7f4e487b7100000000000000000000000000000000000000000000000000000000600052601260045260246000fd5b6000614be182613b2b565b9150614bec83613b2b565b925082614bfc57614bfb614ba7565b5b828204905092915050565b600081905092915050565b50565b6000614c22600083614c07565b9150614c2d82614c12565b600082019050919050565b6000614c4382614c15565b9150819050919050565b7f4552433732313a20696e76616c696420746f6b656e2049440000000000000000600082015250565b6000614c83601883613a84565b9150614c8e82614c4d565b602082019050919050565b60006020820190508181036000830152614cb281614c76565b9050919050565b7f4552433732313a2061646472657373207a65726f206973206e6f74206120766160008201527f6c6964206f776e65720000000000000000000000000000000000000000000000602082015250565b6000614d15602983613a84565b9150614d2082614cb9565b604082019050919050565b60006020820190508181036000830152614d4481614d08565b9050919050565b7f4552433732314d657461646174613a2055524920717565727920666f72206e6f60008201527f6e6578697374656e7420746f6b656e0000000000000000000000000000000000602082015250565b6000614da7602f83613a84565b9150614db282614d4b565b604082019050919050565b60006020820190508181036000830152614dd681614d9a565b9050919050565b600081905092915050565b6000614df382613a79565b614dfd8185614ddd565b9350614e0d818560208601613a95565b80840191505092915050565b60008154614e26816143be565b614e308186614ddd565b94506001821660008114614e4b5760018114614e6057614e93565b60ff1983168652811515820286019350614e93565b614e69856148bd565b60005b83811015614e8b57815481890152600182019150602081019050614e6c565b838801955050505b50505092915050565b6000614ea88286614de8565b9150614eb48285614de8565b9150614ec08284614e19565b9150819050949350505050565b7f416c6c6f774c697374204d696e7420436c6f7365640000000000000000000000600082015250565b6000614f03601583613a84565b9150614f0e82614ecd565b602082019050919050565b60006020820190508181036000830152614f3281614ef6565b9050919050565b60008160601b9050919050565b6000614f5182614f39565b9050919050565b6000614f6382614f46565b9050919050565b614f7b614f7682613bae565b614f58565b82525050565b6000614f8d8284614f6a565b60148201915081905092915050565b7f4e6f7420612070617274206f6620416c6c6f776c697374000000000000000000600082015250565b6000614fd2601783613a84565b9150614fdd82614f9c565b602082019050919050565b6000602082019050818103600083015261500181614fc5565b9050919050565b7f57686974656c697374204d696e7420536f6c64204f7574210000000000000000600082015250565b600061503e601883613a84565b915061504982615008565b602082019050919050565b6000602082019050818103600083015261506d81615031565b9050919050565b7f4f776e61626c653a206e6577206f776e657220697320746865207a65726f206160008201527f6464726573730000000000000000000000000000000000000000000000000000602082015250565b60006150d0602683613a84565b91506150db82615074565b604082019050919050565b600060208201905081810360008301526150ff816150c3565b9050919050565b7f4f776e61626c653a2063616c6c6572206973206e6f7420746865206f776e6572600082015250565b600061513c602083613a84565b915061514782615106565b602082019050919050565b6000602082019050818103600083015261516b8161512f565b9050919050565b7f4552433732313a207472616e736665722066726f6d20696e636f72726563742060008201527f6f776e6572000000000000000000000000000000000000000000000000000000602082015250565b60006151ce602583613a84565b91506151d982615172565b604082019050919050565b600060208201905081810360008301526151fd816151c1565b9050919050565b7f4552433732313a207472616e7366657220746f20746865207a65726f2061646460008201527f7265737300000000000000000000000000000000000000000000000000000000602082015250565b6000615260602483613a84565b915061526b82615204565b604082019050919050565b6000602082019050818103600083015261528f81615253565b9050919050565b7f4552433732313a20617070726f766520746f2063616c6c657200000000000000600082015250565b60006152cc601983613a84565b91506152d782615296565b602082019050919050565b600060208201905081810360008301526152fb816152bf565b9050919050565b7f4552433732313a207472616e7366657220746f206e6f6e20455243373231526560008201527f63656976657220696d706c656d656e7465720000000000000000000000000000602082015250565b600061535e603283613a84565b915061536982615302565b604082019050919050565b6000602082019050818103600083015261538d81615351565b9050919050565b7f455243373231456e756d657261626c653a20636f6e736563757469766520747260008201527f616e7366657273206e6f7420737570706f727465640000000000000000000000602082015250565b60006153f0603583613a84565b91506153fb82615394565b604082019050919050565b6000602082019050818103600083015261541f816153e3565b9050919050565b600081519050919050565b600082825260208201905092915050565b600061544d82615426565b6154578185615431565b9350615467818560208601613a95565b61547081613abf565b840191505092915050565b60006080820190506154906000830187613bc0565b61549d6020830186613bc0565b6154aa6040830185613c56565b81810360608301526154bc8184615442565b905095945050505050565b6000815190506154d681613991565b92915050565b6000602082840312156154f2576154f161395b565b5b6000615500848285016154c7565b91505092915050565b600061551482613b2b565b915061551f83613b2b565b92508282039050818111156155375761553661467d565b5b92915050565b7f4e487b7100000000000000000000000000000000000000000000000000000000600052603160045260246000fd5b7f4552433732313a206d696e7420746f20746865207a65726f2061646472657373600082015250565b60006155a2602083613a84565b91506155ad8261556c565b602082019050919050565b600060208201905081810360008301526155d181615595565b9050919050565b7f4552433732313a20746f6b656e20616c7265616479206d696e74656400000000600082015250565b600061560e601c83613a84565b9150615619826155d8565b602082019050919050565b6000602082019050818103600083015261563d81615601565b905091905056fea26469706673582212202426b6f9fba66784615630371c13987bbc5df028e242beb9c664c848b5330ad764736f6c63430008110033697066733a2f2f516d627152744334446b5937626445703344376a4d6f58535877434e4c6d58506e4739644365613948774d6347512f68696464656e2e6a736f6e697066733a2f2f516d50376e4471764d4b535a6f706b51466e6446476b53506777447a4a62344e6b3644664456696134694e586162",
  "linkReferences": {},
  "deployedLinkReferences": {}
}